:020000040800F2
:100000000080012091760008A9750008AB750008F2
:10001000AD750008AF750008B1750008000000005C
:100020000000000000000000000000002140000867
:10003000B375000800000000B1400008B575000865
:10004000E1760008E1760008E1760008E176000834
:10005000E1760008E1760008E1760008E176000824
:10006000E1760008E1760008E1760008E176000814
:10007000E1760008E1760008E1760008E176000804
:10008000E1760008E1760008E1760008E1760008F4
:10009000E1760008E1760008E1760008E1760008E4
:1000A000E1760008E1760008E1760008E1760008D4
:1000B000E1760008E1760008E1760008E1760008C4
:1000C000E1760008E1760008E1760008E1760008B4
:1000D000E1760008E1760008E1760008E1760008A4
:1000E000E1760008E1760008E1760008E176000894
:1000F000E1760008E1760008E1760008E176000884
:10010000E1760008E1760008E1760008E176000873
:10011000E1760008E1760008E1760008E176000863
:10012000E1760008E1760008E1760008E176000853
:10013000E1760008E1760008E1760008E176000843
:10014000E1760008E1760008E17600080000000092
:10015000E1760008E1760008E1760008E176000823
:10016000E1760008E1760008E1760008E176000813
:10017000E1760008E17600080000000000000000C1
:08018000E1760008E1760008B9
:1001900010B5054C237833B9044B13B10448AFF3C1
:1001A00000800123237010BDCC0600200000000059
:1001B000C8C4000808B5034B1BB103490348AFF39B
:1001C000008008BD00000000D0060020C8C4000860
:1001D00010F8012B11F8013B012A28BF9A42F7D0F1
:1001E000D01A7047034613F8012B002AFBD1181AC6
:1001F000013870470000000000000000000000000F
:1002000001F0FF01102A2BDB10F0070F08D010F8C7
:10021000013B013A8B422DD010F0070F42B3F6D1CB
:10022000F0B441EA012141EA014122F007047FF0E4
:1002300000070023F0E80256083C85EA010586EA3B
:10024000010685FA47F5A3FA87F586FA47F6A5FA77
:1002500087F68EB9EED1F0BC01F0FF0102F0070283
:1002600032B110F8013B013A83EA010313B1F8D12E
:100270000020704701387047002D06BF354603380F
:10028000073815F0010F07D1013015F4807F02BF48
:10029000013015F4C03F0130F0BC0138704700BF99
:1002A00081F0004102E000BF83F0004330B54FEA27
:1002B00041044FEA430594EA050F08BF90EA020F94
:1002C0001FBF54EA000C55EA020C7FEA645C7FEA27
:1002D000655C00F0E2804FEA5454D4EB5555B8BF4A
:1002E0006D420CDD2C4480EA020281EA030382EABB
:1002F000000083EA010180EA020281EA0303362D4D
:1003000088BF30BD11F0004F4FEA01314FF4801C1F
:100310004CEA113102D0404261EB410113F0004F31
:100320004FEA03334CEA133302D0524263EB4303E8
:1003300094EA050F00F0A780A4F10104D5F1200E86
:100340000DDB02FA0EFC22FA05F2801841F10001E1
:1003500003FA0EF2801843FA05F359410EE0A5F1B5
:1003600020050EF1200E012A03FA0EFC28BF4CF0E6
:10037000020C43FA05F3C01851EBE37101F000459C
:1003800007D54FF0000EDCF1000C7EEB00006EEBA9
:100390000101B1F5801F1BD3B1F5001F0CD3490833
:1003A0005FEA30004FEA3C0C04F101044FEA44528A
:1003B00012F5800F80F09A80BCF1004F08BF5FEA11
:1003C000500C50F1000041EB045141EA050130BDF1
:1003D0005FEA4C0C404141EB010111F4801FA4F194
:1003E0000104E9D191F0000F04BF01460020B1FAE9
:1003F00081F308BF2033A3F10B03B3F120020CDA21
:100400000C3208DD02F1140CC2F10C0201FA0CF0FE
:1004100021FA02F10CE002F11402D8BFC2F1200C63
:1004200001FA02F120FA0CFCDCBF41EA0C01904019
:10043000E41AA2BF01EB0451294330BD6FEA040462
:100440001F3C1CDA0C340EDC04F11404C4F120024D
:1004500020FA04F001FA02F340EA030021FA04F35F
:1004600045EA030130BDC4F10C04C4F1200220FAB6
:1004700002F001FA04F340EA0300294630BD21FAF4
:1004800004F0294630BD94F0000F83F4801306BFBA
:1004900081F480110134013D4EE77FEA645C18BFAE
:1004A0007FEA655C29D094EA050F08BF90EA020F45
:1004B00005D054EA000C04BF1946104630BD91EA3D
:1004C000030F1EBF0021002030BD5FEA545C05D140
:1004D0004000494128BF41F0004130BD14F580047F
:1004E0003CBF01F5801130BD01F0004545F0FE41F3
:1004F00041F470014FF0000030BD7FEA645C1ABF28
:10050000194610467FEA655C1CBF0B46024650EA5E
:10051000013406BF52EA033591EA030F41F400218A
:1005200030BD00BF90F0000F04BF0021704730B510
:100530004FF4806404F132044FF000054FF00001E5
:1005400050E700BF90F0000F04BF0021704730B5A6
:100550004FF4806404F1320410F0004548BF40427B
:100560004FF000013EE700BF42004FEAE2014FEAD0
:1005700031014FEA02701FBF12F07F4393F07F4FAB
:1005800081F06051704792F0000F14BF93F07F4FDD
:10059000704730B54FF4607401F0004521F0004120
:1005A00020E700BF50EA010208BF704730B54FF0A6
:1005B00000050AE050EA010208BF704730B511F0AB
:1005C000004502D5404261EB41014FF4806404F1E3
:1005D00032045FEA915C3FF4DCAE4FF003025FEA65
:1005E000DC0C18BF03325FEADC0C18BF033202EBED
:1005F000DC02C2F1200300FA03FC20FA02F001FA47
:1006000003FE40EA0E0021FA02F11444C1E600BFE5
:1006100070B54FF0FF0C4CF4E06C1CEA11541DBF98
:100620001CEA135594EA0C0F95EA0C0F00F0DEF863
:100630002C4481EA030621EA4C5123EA4C5350EA48
:10064000013518BF52EA033541F4801143F4801399
:1006500038D0A0FB02CE4FF00005E1FB02E506F02A
:100660000042E0FB03E54FF00006E1FB03569CF07F
:10067000000F18BF4EF0010EA4F1FF04B6F5007F85
:1006800064F5407404D25FEA4E0E6D4146EB0606F7
:1006900042EAC62141EA55514FEAC52040EA5E5080
:1006A0004FEACE2EB4F1FD0C88BFBCF5E06F1ED82A
:1006B000BEF1004F08BF5FEA500E50F1000041EB61
:1006C000045170BD06F0004646EA010140EA02000E
:1006D00081EA0301B4EB5C04C2BFD4EB0C0541EA30
:1006E000045170BD41F480114FF0000E013C00F345
:1006F000AB8014F1360FDEBF002001F0004170BD69
:10070000C4F10004203C35DA0C341BDC04F1140481
:10071000C4F1200500FA05F320FA04F001FA05F20D
:1007200040EA020001F0004221F0004110EBD370DA
:1007300021FA04F642EB06015EEA430E08BF20EA06
:10074000D37070BDC4F10C04C4F1200500FA04F3A9
:1007500020FA05F001FA04F240EA020001F000413B
:1007600010EBD37041F100015EEA430E08BF20EAAE
:10077000D37070BDC4F1200500FA05F24EEA020EF6
:1007800020FA04F301FA05F243EA020321FA04F025
:1007900001F0004121FA04F220EA020000EBD370DC
:1007A0005EEA430E08BF20EAD37070BD94F0000FDC
:1007B0000FD101F00046400041EB010111F4801F10
:1007C00008BF013CF7D041EA060195F0000F18BFC1
:1007D000704703F00046520043EB030313F4801FFD
:1007E00008BF013DF7D043EA0603704794EA0C0FB7
:1007F0000CEA135518BF95EA0C0F0CD050EA4106CD
:1008000018BF52EA4306D1D181EA030101F0004149
:100810004FF0000070BD50EA410606BF1046194671
:1008200052EA430619D094EA0C0F02D150EA01367D
:1008300013D195EA0C0F05D152EA03361CBF1046BE
:1008400019460AD181EA030101F0004141F0FE415D
:1008500041F470014FF0000070BD41F0FE4141F4E1
:10086000780170BD70B54FF0FF0C4CF4E06C1CEAE1
:1008700011541DBF1CEA135594EA0C0F95EA0C0F96
:1008800000F0A7F8A4EB050481EA030E52EA033551
:100890004FEA013100F088804FEA03334FF0805572
:1008A00045EA131343EA12634FEA022245EA11159F
:1008B00045EA10654FEA00260EF000419D4208BF50
:1008C000964244F1FD0404F5407402D25B084FEAFD
:1008D0003202B61A65EB03055B084FEA32024FF4A9
:1008E00080104FF4002CB6EB020E75EB030E22BF06
:1008F000B61A754640EA0C005B084FEA3202B6EBC6
:10090000020E75EB030E22BFB61A754640EA5C0074
:100910005B084FEA3202B6EB020E75EB030E22BF04
:10092000B61A754640EA9C005B084FEA3202B6EB05
:10093000020E75EB030E22BFB61A754640EADC00C4
:1009400055EA060E18D04FEA051545EA16754FEA26
:1009500006164FEAC30343EA52734FEAC2025FEA44
:100960001C1CC0D111F4801F0BD141EA00014FF0D3
:1009700000004FF0004CB6E711F4801F04BF0143A4
:100980000020B4F1FD0C88BFBCF5E06F3FF6AFAEC0
:10099000B5EB030C04BFB6EB020C5FEA500C50F150
:1009A000000041EB045170BD0EF0004E4EEA1131D3
:1009B00014EB5C04C2BFD4EB0C0541EA045170BDDA
:1009C00041F480114FF0000E013C90E645EA060E1E
:1009D0008DE60CEA135594EA0C0F08BF95EA0C0F4C
:1009E0003FF43BAF94EA0C0F0AD150EA01347FF494
:1009F00034AF95EA0C0F7FF425AF104619462CE76B
:100A000095EA0C0F06D152EA03353FF4FDAE1046CD
:100A1000194622E750EA410618BF52EA43067FF41E
:100A2000C5AE50EA41047FF40DAF52EA43057FF4AE
:100A3000EBAE12E74FF0FF3C06E000BF4FF0010CB9
:100A400002E000BF4FF0010C4DF804CD4FEA410C1D
:100A50007FEA6C5C4FEA430C18BF7FEA6C5C1BD0EA
:100A600001B050EA410C0CBF52EA430C91EA030F6B
:100A700002BF90EA020F0020704710F1000F91EAC8
:100A8000030F58BF994208BF90422CBFD8176FEA96
:100A9000E37040F0010070474FEA410C7FEA6C5C64
:100AA00002D150EA013C07D14FEA430C7FEA6C5C6B
:100AB000D6D152EA033CD3D05DF8040B704700BF97
:100AC0008446104662468C461946634600E000BFE5
:100AD00001B5FFF7B7FF002848BF10F1000F01BDB7
:100AE0004DF808EDFFF7F4FF0CBF012000205DF882
:100AF00008FB00BF4DF808EDFFF7EAFF34BF012007
:100B000000205DF808FB00BF4DF808EDFFF7E0FF9F
:100B100094BF012000205DF808FB00BF4DF808EDF0
:100B2000FFF7CEFF94BF012000205DF808FB00BF57
:100B30004DF808EDFFF7C4FF34BF012000205DF839
:100B400008FB00BF4FEA410C7FEA6C5C02D150EA1F
:100B5000013C0AD14FEA430C7FEA6C5C02D152EAB5
:100B6000033C02D14FF0000070474FF00100704786
:100B70004FEA410212F5001215D211D56FF47873C5
:100B8000B3EB625212D94FEAC12343F0004343EA68
:100B9000505311F0004F23FA02F018BF4042704743
:100BA0004FF00000704750EA013005D111F00040CD
:100BB00008BF6FF0004070474FF00000704700BF63
:100BC0004FEA4102B2F1E04324BFB3F5001CDCF16F
:100BD000FE5C0DD901F0004C4FEAC0024CEA5070A7
:100BE000B2F1004F40EB830008BF20F001007047D6
:100BF00011F0804F21D113F13872BCBF01F00040D9
:100C0000704741F480114FEA5252C2F11802C2F10A
:100C1000200C10FA0CF320FA02F018BF40F001008B
:100C20004FEAC1234FEAD32303FA0CFC40EA0C003D
:100C300023FA02F34FEA4303CCE77FEA625307D17A
:100C400050EA01331EBF4FF0FE4040F440007047B1
:100C500001F0004040F0FE4040F40000704700BF4B
:100C600053B94AB9002908BF00281CBF4FF0FF3113
:100C70004FF0FF3000F07AB9ADF1080C6DE904CE09
:100C800000F006F8DDF804E0DDE9022304B0704767
:100C90002DE9F0478C460D460446089E002B51D1A5
:100CA0008A4217466DD9B2FA82FEBEF1000F0BD010
:100CB000CEF1200C01FA0EF520FA0CFC02FA0EF728
:100CC0004CEA050C00FA0EF44FEA174A250CBCFB5F
:100CD000FAF81FFA87F90AFB18CC45EA0C4508FB1D
:100CE00009F3AB420AD9ED1908F1FF3280F02381F4
:100CF000AB4240F22081A8F102083D44ED1AA4B2B3
:100D0000B5FBFAF00AFB105544EA054400FB09F96B
:100D1000A14509D9E41900F1FF3380F00A81A1450A
:100D200040F2078102383C44A4EB090440EA084041
:100D30000021002E61D024FA0EF400233460736089
:100D4000BDE8F0878B4207D9002E54D0002186E8F9
:100D500021000846BDE8F087B3FA83F1002940F08E
:100D60008E80AB4202D3824200F2FA80841A65EB95
:100D700003050120AC46002E3FD086E81010BDE8E8
:100D8000F08712B90127B7FBF2F7B7FA87FEBEF179
:100D9000000F34D1EB1B3A0C1FFA87FC0121B3FB87
:100DA000F2F8250C02FB183345EA03450CFB08F367
:100DB000AB4207D9ED1908F1FF3002D2AB4200F285
:100DC000D1808046ED1AA3B2B5FBF2F002FB1055BC
:100DD00043EA05440CFB00FCA44507D9E41900F1E3
:100DE000FF3302D2A44500F2B8801846A4EB0C04ED
:100DF00040EA08409DE731463046BDE8F087CEF135
:100E0000200405FA0EF307FA0EF720FA04F83A0C5C
:100E100025FA04F448EA0308B4FBF2F14FEA184556
:100E200002FB11441FFA87FC45EA044501FB0CF361
:100E3000AB4200FA0EF409D9ED1901F1FF3080F050
:100E40008A80AB4240F2878002393D44EB1A1FFA98
:100E500088F5B3FBF2F002FB103345EA034500FBD3
:100E60000CF3AB4207D9ED1900F1FF386FD2AB425A
:100E70006DD902383D44EB1A40EA01418FE7C1F1D8
:100E8000200722FA07F88B4005FA01F448EA030329
:100E900020FA07FE4FEA134CFD404EEA040EB5FB64
:100EA000FCF94FEA1E440CFB19551FFA83F844EA7B
:100EB000054509FB08F4AC4202FA01F200FA01FA16
:100EC00008D9ED1809F1FF3043D2AC4241D9A9F15C
:100ED00002091D442D1B1FFA8EFEB5FBFCF00CFB16
:100EE00010554EEA054400FB08F8A04507D9E41860
:100EF00000F1FF3529D2A04527D902381C4440EA29
:100F00000940A4EB0804A0FB02894C45C6464D46A7
:100F100015D312D056B1BAEB0E0364EB050404FAF4
:100F200007F7CB401F43CC40376074600021BDE819
:100F3000F0871846F8E69046E0E6C245EAD2B8EBFC
:100F4000020E69EB03050138E4E72846D7E740467F
:100F500091E78146BEE7014678E702383C4445E721
:100F6000084608E7A8F102083D442BE7704700BF98
:100F700038B50A4B054618684FF47A73B0FBF3F0A6
:100F800000F0A2FD044638B9024629464FF0FF3072
:100F900000F05AFD204638BD012038BD5800002021
:100FA00010B5032000F03EFD0F20FFF7E1FF0446DF
:100FB00018B906F06DF9204610BD0124FBE70000CA
:100FC000024A136801331360704700BFFC8400209D
:100FD000014B1868704700BFFC84002038B50446F8
:100FE000FFF7F6FF631C054618BF0134FFF7F0FF5B
:100FF000401B8442FAD838BD014B1868704700BFC7
:101000009075FF1F014B1868704700BF9475FF1F54
:10101000014B1868704700BF9875FF1F30B5CC0DA5
:1010200004F004041430C1F30451072303FA01F55A
:10103000235802FA01F123EA05031943215030BD78
:10104000806800F0010070478068C0F3800070473E
:1010500037B5002301930446002800F08580456DD4
:1010600025B906F035F9A56584F8505020688368E5
:101070009B007BD48368DD007FD58368D90040F175
:101080008A800021FFF7E0FF636D13F0100F636D9E
:1010900067D1002865D123F4817343F002036365AF
:1010A0002068FFF7CDFF98B95248FFF7C9FF034604
:1010B0005148FFF7C5FF03435048FFF7C1FF034303
:1010C00006D14F4A6068936823F47C13034393600E
:1010D000E068636B94F820200343A0680343607EBC
:1010E000012A43EA403343EA024302BF626A02F143
:1010F000FF3243EA4243A26A22B1E06A02F470720C
:101100000243134320683F4AC5682A401343C36023
:10111000FFF79AFF23689A68120746D52269012AC9
:1011200005BF186BE2691A6B02F1FF3206BF20F0AF
:101130000F00024322F00F021A63636D23F00303D2
:1011400043F001036365084603B030BD019B013BDA
:101150000193019B002BF9D18FE71A6922F001025C
:1011600045E043F0100363650121ECE7836823F059
:10117000204323F03F0383607CE78368224A23F007
:10118000104323F03F0343F0805383601F4B1B68E1
:10119000B3FBF2F3DCE7636D43F010036365A36D0B
:1011A00043F00103A36501216CE70028B6D1D8689C
:1011B00094F83020257E520020F4804042EA8532A7
:1011C00020F002000243DA6094F83820012AC4D1EA
:1011D000256CE26B18692A43656C42F001022A43D0
:1011E000A56C20F4FF602A4320F0040002431A613A
:1011F00094E700BF000004500001045000020450B6
:101200000003045007C0F0FF400D03005800002009
:10121000384B2DE9F04145699E68082D04460F467C
:1012200006F01F0617D0092E10D840F22122F240F6
:10123000D1070BD50368DB6813F0010F0AD0636D8B
:1012400043F0200363650120BDE8F0819B6813F43F
:10125000604FF3E70425FFF7BBFE804623681A685A
:10126000154221D0626D42F400726265DA6812F4B0
:10127000406F0FD1627E6AB91A6810070AD5626D95
:1012800022F480726265626DD1045EBF626D42F0CD
:1012900001026265184A934221D0D868082D17D1FF
:1012A0001D600020BDE8F0817A1CD8D0FFF790FEC9
:1012B000A0EB0800874201D3002FCFD1636D43F02C
:1012C00004036365002384F850300320BDE8F081F7
:1012D00010F48040E5D10C221A60BDE8F081092E9F
:1012E00005D840F2212222FA06F6F207D5D4034AA5
:1012F000D068D3E7000304500001045000000450FC
:101300000368186C70470000F7B50023019390F84C
:101310005030012B05460C4600F08781012380F8F0
:1013200050300068FFF790FE002840F078814B684D
:10133000052B08D8023B032B65D8DFE803F0025DDC
:101340005F610C236360616828688E0900F13007D3
:1013500006F00C0601F01F011F2303FA01F2F359F6
:1013600023EA02032268C2F384628A401343F351E2
:10137000FFF76AFE2B689A68110740F158812868C8
:10138000FFF75EFE002840F0D780E66828682368F3
:10139000C34AD0F8B01006F0180EC3F3120722FAB1
:1013A0000EF21A4021EA07010A43C0F8B020BD4AF4
:1013B000964240F0C180002F40F093809E0E01368F
:1013C00006F01F02092A4FF001014FEA866640F23B
:1013D000A28006F0F846914041EA0602002F40F054
:1013E000CB809B0E013303F01F0303EB43011E3937
:1013F000090541F000719BE01223A3E71823A1E740
:101400004FF480739EE706239CE7DEF86010C3F379
:101410001200C1F384670EF1640600283AD1C3F3C9
:101420008460874240F0288121F00041CEF86010AE
:101430002368DEF86410C3F31207C1F384609FBB16
:10144000C3F38463834240F01C8121F0004131608A
:1014500023689168C3F3120702F10806C1F38460A0
:1014600077BBC3F38463834240F0128121F00041D3
:101470003160236802F10C00D268C3F31206C2F394
:1014800084614EBBC3F384638B4204BF22F00042ED
:10149000026074E793FAA3F0B0FA80F08742C3D0F9
:1014A000DEF86410C1F3846093FAA3F3B3FA83F314
:1014B0008342CAD09168236802F10806C1F38460B0
:1014C00093FAA3F3B3FA83F38342CFD002F10C0073
:1014D000D2682368C2F3846193FAA3F3B3FA83F367
:1014E000D2E793FAA3F2B2FA82F2013202F01F02BB
:1014F000092A30D893FAA3F6B6FA86F60136B6066C
:1015000006F0F84693FAA3F1B1FA81F1013101F046
:101510001F02012101E006F0F846914041EA06026F
:10152000A7B9990E013101F01F0101EB4101090535
:101530001143A268FFF772FD22685B4B1A4220D16B
:101540000020002385F8503003B0F0BD93FAA3F1DA
:10155000B1FA81F1E6E793FAA3F2B2FA82F201322C
:10156000920602F0F84693FAA3F1B1FA81F1013143
:1015700001F01F0201212EE793FAA3F3B3FA83F3DC
:1015800030E74A494A4B88689A4200F0E0760C46B8
:101590001ED10202D4D42B68464A934203D002F5EE
:1015A00000729342CCD1A368434A23F0E0733343E3
:1015B00043F40003A360414B1B68B3FBF2F20C231E
:1015C00053430193019B002BBAD0019B013BF8E7E9
:1015D0003B4B9A4211D1C301B2D42B68354A934296
:1015E00003D002F500729342AAD1A36823F0E073FE
:1015F000334343F08073A360A2E7324B9A429FD1FA
:1016000010F480009CD12A682A4B9A4298D18B68AA
:1016100023F0E073334343F480038B6091E76A6DFA
:1016200042F020026A6518468BE702208CE700280A
:101630007FF4A5AEA26821681846FFF7EFFC266983
:10164000D5F800E02368DEF80C10042E0EF16002DD
:101650003FF4DBAEC1F3C1014800616903F0F84318
:10166000814043F00043194352F82600164B0340D3
:10167000194342F8261082E6DEF86410C1F3846054
:10168000DEE69168236802F10806C1F38460E8E6AB
:1016900002F10C00D2682368C2F38461F2E600BF55
:1016A000FFFF070000007F40000008800003045097
:1016B000000052C700000450400D030058000020F5
:1016C000000084CB0100008000F0FF03406D7047F4
:1016D00070B504460068FFF7B7FC23689A681507E1
:1016E00042D5DA68920123D5208B40F20112904254
:1016F0001ED1294A19684E060ED540221A600121D2
:101700001846FFF7A1FC18B1226893689D072ED5F3
:1017100001290FD1042518E0013AEBD1636D43F0A4
:1017200010036365A36D43F00103A365012070BD41
:101730000229E5D122689368180721D4022903D031
:101740000329E7D10C2500E00825FFF741FC0646F8
:1017500023689B681D4201D1002070BDFFF738FC53
:10176000801B0528F4D9D9E70028BAD1F4E793689B
:1017700023F0004323F03F0343F010039360C7E7D7
:1017800093689B07DAD4936823F0004323F03F0368
:1017900043F020039360D1E7010040A370B50446F5
:1017A0000068FFF74DFC08B1002070BD2268154BA2
:1017B0009168194209D0636D43F010036365A36D0E
:1017C00043F00103A365012070BD93680E4D2B40CB
:1017D00043F001039360FFF7FBFB064620680368B4
:1017E000DB07E1D4FFF72CFC28B9226893682B4073
:1017F00043F001039360FFF7EBFB801B0228EDD958
:10180000D9E700BF3F000080C0FFFF7F354B70B5B8
:10181000044600689E68FFF717FC054600285AD169
:1018200094F85030012B56D0012384F850302046D4
:10183000FFF7B4FF00284BD1636D2B4A23F470638C
:1018400023F0010343F4807363652368934206F039
:101850001F0642D01D46626D22F480126265626DE1
:1018600012F480521CBFA26D22F00602A2651C2257
:101870001A60AB424FF0000284F8502008D0092EC5
:101880009DBF40F22122F240D2430122D10711D460
:10189000DA68920141BF626D22F4405242F48052F4
:1018A00062659A6822F0004222F03F0242F0040290
:1018B0009A6070BD636D43F480136365EB689B01B0
:1018C0000FD5636D23F4405343F48053636570BDBB
:1018D00084F8505070BD022070BD044D002EBAD067
:1018E000BDE770BD00030450000104500000045027
:1018F00038B504460068836803F00203FFF7A0FBD5
:1019000008B9002038BD002BFBD12268936803F092
:101910000D03012B15D1936823F0004323F03F03FF
:1019200043F00203936003231360FFF751FB054666
:1019300023689B68DB07E4D5FFF74AFB401B0228BE
:10194000F6D9636D43F010036365A36D43F00103A3
:10195000A365012038BD90F85030012B10B5044626
:1019600016D0012380F850300321FFF7B1FE58B99B
:101970002046FFF7BDFF38B9636D23F4885323F089
:10198000010343F001036365002384F8503010BD68
:10199000022010BD37B50023019390F85030012B81
:1019A00004460D4634D0012380F85030FFF7A0FFE5
:1019B000636D30BB23F4885323F0020343F002032A
:1019C0006365236816499A6822F080422A439A6028
:1019D0009A6842F000429A609A68002A1ADA019ADC
:1019E00001320192019A8A42F6D9636D23F0120303
:1019F00043F010036365002384F85030012003B0E6
:101A000030BD43F010036365002384F85030F6E7DF
:101A10000220F4E7636D23F0030343F00103F2E7D0
:101A2000FF870400074AD36823F4E0631B041B0C00
:101A300043F0BF63000243F4003300F4E06003436B
:101A4000D360704700ED00E0174B30B5DC68C4F39D
:101A50000224C4F10703251D042B28BF0423062DEF
:101A60004FF0010505FA03F303F1FF338CBF033C8C
:101A700000241940A14005FA04F4013C224000284A
:101A800042EA01024FEA0212AFBF00F1604000F0EB
:101A90000F00064BD2B2A5BF00F56140D2B21A5476
:101AA00080F8002330BD00BF00ED00E014ED00E041
:101AB0004209012300F01F0003FA00F0014B43F834
:101AC0002200704700E100E00138B0F1807F0AD2C7
:101AD000064B074A5860F02182F8231000200722A5
:101AE00098601A6070470120704700BF10E000E066
:101AF00000ED00E02DE9F04F85B00B68DFF8A8811C
:101B0000674C01930023019ADA4002D105B0BDE889
:101B1000F08F0126019A9E4012EA060E00F0B18075
:101B20004A6822F01007022F16D14FEAD30900EBC2
:101B3000890903F0070AD9F820504FEA8A0A4FF0C2
:101B40000F0C0CFA0AFC25EA0C0C0D6905FA0AF5D3
:101B500045EA0C05C9F820504FEA430C0325D0F89C
:101B600000B005FA0CF5ED4302F0030A0BEA050B91
:101B70000AFA0CF9013F49EA0B09012FC0F800905D
:101B800011D8876805EA0709CF6807FA0CF747EA12
:101B900009078760476827EA0609C2F300179F40D4
:101BA00047EA09074760BAF1030F07D1C76A27EA76
:101BB0000606C2F3C0079F403E43C662C668354072
:101BC0008E6806FA0CF63543C560D50059D5D8F8AD
:101BD000605045F00105C8F86050D8F8605023F017
:101BE000030606F1804605F0010506F580360395EB
:101BF00003F0030C039DB5684FEA8C0C0F2707FA1E
:101C00000CF7B0F1904F25EA07073CD0254DA842CC
:101C10003BD005F58065A84239D005F58065A8421E
:101C200037D005F58065A84235D005F58065A84216
:101C300033D005F58065A84214BF0725062505FAAF
:101C40000CF53D43B56025686FEA0E06D70354BF17
:101C500035404EEA050525606568970354BF354059
:101C60004EEA05056560A568D70254BF35404EEAC7
:101C70000505A560E568920254BF35404EEA0505AA
:101C8000E56001333FE70025D9E70125D7E70225C5
:101C9000D5E70325D3E70425D1E70525CFE700BF26
:101CA000000401400004004800100240036919428A
:101CB00014BF0120002070470AB181617047816222
:101CC0007047436959404161704710B50446002888
:101CD0004AD090F8413003F0FF021BB980F8402051
:101CE00005F026FB242384F841302368E1681A6854
:101CF00022F001021A60626822F070621A619A682A
:101D0000012922F400429A60A26824D142F40042E0
:101D10009A605A68616942F0007242F400425A6067
:101D2000DA6822F40042DA6022690A43A16942EAD1
:101D30000122DA60216AE2690A431A601A6842F0F5
:101D400001021A6000202023606484F8413020637F
:101D500084F8420010BD42F4044202299A6004BF94
:101D60004FF400625A60D4E7012010BD90F8412082
:101D7000D2B2202A10B51DD190F84030012B19D0D5
:101D8000242380F8413003681C6824F001041C609F
:101D90001C6824F480541C601C6821431960196875
:101DA00041F001011960002380F8412080F84030A3
:101DB000184610BD022010BD10B590F84140E4B2A5
:101DC000202C1CD190F84030012B18D0242380F80F
:101DD000413003681A6822F001021A601A6822F47E
:101DE000706242EA012119601A6842F001021A6029
:101DF000002380F8414080F84030184610BD022092
:101E000010BD0000024B186800F4C060704700BFAE
:101E100000700040174B1A68B0F5007F02F4C062F2
:101E20001CD1B2F5007F15D01A6822F4C06242F4CA
:101E300000721A60104A116832224A430F49B2FBFD
:101E4000F1F2194601325869400500D522B94B69B3
:101E50005B050DD400207047013AF4E7B2F5806FBE
:101E60001FBF1A6822F4C06242F480621A60F1E770
:101E700003207047007000405800002040420F00CF
:101E800037B51E4DAB6DDA00044618D5FFF7BAFF23
:101E9000B0F5007F23D1802C29D9A02C8CBF022043
:101EA0000120174A136823F00703034313601368E4
:101EB00003F00703181A18BF012003B030BDAB6D43
:101EC00043F08053AB65AB6D03F080530193019BEE
:101ED000FFF798FFAB6D23F08053AB65D8E7802CFC
:101EE00007D808D0A4F1700358425841D9E7002020
:101EF000D7E70320D5E70220D3E700BF0010024058
:101F000000200240254B9A68D96812F00C0205D0D7
:101F10000C2A15D101F00301012918D119682048B4
:101F2000090755BFD3F894101968C1F30321C1F311
:101F3000031150F8210082B30C2A09D00020704709
:101F4000042A29D0082A174818BF0020704700200B
:101F5000D968DA6801F00301C2F30212022902F122
:101F6000010205D0032912D0D968C1F3062103E08C
:101F7000D9680D48C1F30621DB68B0FBF2F0C3F36A
:101F80004163013348435B00B0FBF3F07047D9680D
:101F90000448C1F30621EFE70348704700100240F0
:101FA000B8D1000800127A000024F4002DE9F743AC
:101FB000054618B9012003B0BDE8F083A54C0368BD
:101FC000A668E768DB0606F00C0607F003073CD5B9
:101FD0001EB10C2E63D1012F61D12368980702D561
:101FE000AB69002BE6D02368286A190756BFD4F8DE
:101FF000943023681B0903F0F00383423AD2FFF7C1
:102000003FFF0028D6D1236843F0080323602368EC
:102010002A6A23F0F003134323606368EA6923F418
:102020007F4343EA02236360FFF76CFFA3688A4A99
:10203000C3F30313D35C03F01F03D840874B18602E
:102040000F20FEF795FF0028B5D12B68D8075DD487
:102050002B68990700F19C802B68180700F1D0804D
:102060002B68590700F1FC80AB6A002B40F06581BA
:102070000020A0E7236843F008032360236823F0CF
:10208000F003034323606368EA6923F47F4343EA70
:1020900002236360FFF7F4FE0028C5D08AE7AB692E
:1020A0001BB3236843F001032360FEF791FF8046D2
:1020B00023689A0711D5236843F008032360236837
:1020C0002A6A23F0F003134323606368EA6923F468
:1020D0007F4343EA02236360B7E7FEF779FFA0EB93
:1020E00008000228E4D9032065E7236823F00103F0
:1020F0002360FEF76DFF804623689B07A5D5FEF79A
:1021000067FFA0EB08000228F6D9ECE7082E03D001
:102110000C2E08D1032F06D123689A0398D56B683B
:10212000002B95D146E76B68B3F5803F10D123684B
:1021300043F480332360FEF74BFF804623689B0304
:1021400086D4FEF745FFA0EB08006428F6D9CAE75D
:10215000B3F5A02F04D1236843F480232360E6E77E
:10216000226822F480322260226822F480222260D7
:10217000002BE0D1FEF72CFF8046236898037FF503
:1021800067AFFEF725FFA0EB08006428F5D9AAE7A2
:10219000042E03D00C2E10D1022F0ED12368590526
:1021A00003D5EB68002B3FF405AF63682A6923F081
:1021B000F85343EA026363604EE7EB687BB1236840
:1021C00043F480732360FEF703FF074623685A0534
:1021D000EBD4FEF7FDFEC01B0228F7D983E7236886
:1021E00023F480732360FEF7F3FE074623685B0544
:1021F0007FF532AFFEF7ECFEC01B0228F6D972E77E
:102200006B699BB1D4F8943043F00103C4F8943067
:10221000FEF7DEFE0746D4F894309A073FF520AF6C
:10222000FEF7D6FEC01B0228F5D95CE7D4F894303F
:1022300023F00103C4F89430FEF7CAFE0746D4F831
:1022400094309B077FF50CAFFEF7C2FEC01B02283F
:10225000F5D948E7001002409ED100085800002040
:10226000A36DD80029D4A36D43F08053A365A36D5B
:1022700003F080530193019B4FF001085D4F3B68D1
:10228000D9051DD5AB68012B2BD1D4F8903043F084
:102290000103C4F89030FEF79BFE41F288390746EF
:1022A000D4F890309B0742D5B8F1000F3FF4DCAE74
:1022B000A36D23F08053A365D6E64FF00008DDE759
:1022C0003B6843F480733B60FEF782FE81463B68C7
:1022D000DA05D7D4FEF77CFEA0EB09000228F6D978
:1022E00001E7052B06D1D4F8903043F00403C4F87D
:1022F0009030CAE7D4F8902022F00102C4F8902070
:10230000D4F8902022F00402C4F89020002BC2D10F
:10231000FEF75EFE41F288390746D4F89030980700
:10232000C2D5FEF755FEC01B4845F6D9DBE6FEF7E1
:102330004FFEC01B4845B3D9D5E60C2E3FF43AAE4C
:10234000022B236823F08073236037D1FEF740FE11
:102350000646236899012BD46A6BEB6A43EA022391
:102360002A6B013A43EA0213AA6B120943EA424379
:10237000EA6B5208013A43EA42532A6C5208013A86
:1023800043EA4263E360236843F080732360E368B9
:1023900043F08073E360FEF71BFE054623689A0155
:1023A0003FF566AEFEF714FE401B0228F6D99AE60A
:1023B000FEF70EFE801B0228CBD994E6236813F0AB
:1023C000205F02BFE36823F00303E360E36823F0C8
:1023D000887323F48033E360FEF7FAFD0546236833
:1023E0009B017FF545AEFEF7F3FD401B0228F6D9B1
:1023F00079E600BF007000402DE9F0410E4604462A
:1024000010B90120BDE8F081404A136803F00703CA
:102410008B4229D32368D90731D421688A075BD43A
:102420003A4A136803F007039E425DD311F0040F8C
:10243000374D64D10B0706D5AB68226923F460538E
:1024400043EAC203AB60FFF75DFDAB68314AC3F3FB
:102450000313BDE8F041D35C03F01F03D8402E4BBB
:1024600018600F20FEF784BD136823F007030B43A9
:102470001360136803F007039942C2D1CAE7626888
:10248000234D032A2B681BD113F0007FB9D0AB6812
:1024900023F003031343AB60FEF79AFD41F2883843
:1024A0000746AB68626803F00C03B3EB820FB4D04D
:1024B000FEF78EFDC01B4045F3D90320BDE8F08137
:1024C000022A02D113F4003FE0E712B913F0020F21
:1024D000DCE713F4806FD9E70D4AA068936823F016
:1024E000F003034393609BE7136823F00703334330
:1024F0001360136803F007039E4282D196E7AB682E
:10250000E26823F4E0631343AB6093E700200240EA
:10251000001002409ED1000858000020054B064ADA
:102520009B68C3F30223D35C044A106803F01F03C3
:10253000D840704700100240AED10008580000207B
:10254000054B064A9B68C3F3C223D35C044A106858
:1025500003F01F03D840704700100240AED10008BE
:1025600058000020F8B5454BDA6812F0030F054615
:102570000E461C4600682AD0DA6802F00302824246
:102580003CD1002A3AD0DB686A68C3F302130133F6
:10259000934233D1236823F080632360FEF718FD54
:1025A000074623681A0132D4AF68002E36D0012EB8
:1025B00050D12269286922F4C002400822F4FE4268
:1025C000013842EA072242EA4052226132E0022800
:1025D00010D0032814D0012810D11B689F0738D5CC
:1025E000E3686A6823F07303013A184340EA021073
:1025F000E060CFE71B6813F4806FF1D10120F8BDD4
:102600001A689103ECD41B6813F4802FF5E7FEF7EA
:10261000DFFCC01B0228C4D90320F8BD2169EB6888
:1026200021F41F3121F4407141EA07211B0941EADD
:1026300043412161236843F080632360FEF7C8FCB7
:10264000064623681B0113D52369AA691343236136
:102650000020F8BD2369686923F0C063400823F4B3
:10266000FE43013843EA072343EA40632361E1E77D
:10267000FEF7AEFC801B0228E3D9CDE70010024034
:10268000F8B53D4BDA6812F0030F05460E461C46BE
:10269000006828D0DA6802F0030282423AD1002AA8
:1026A00038D0DB686A68C3F302130133934231D137
:1026B000236823F080532360FEF78AFC07462368D3
:1026C0009A0030D4A868002E34D06369296923F0B9
:1026D000C063490823F4FE43013943EA002343EA77
:1026E0004163636132E0022810D0032814D001282E
:1026F00010D11B689F0738D5E3686A6823F073031D
:10270000013A184340EA0210E060D1E71B6813F475
:10271000806FF1D10120F8BD1A689103ECD41B68D9
:1027200013F4802FF5E7FEF753FCC01B0228C6D92F
:102730000320F8BD6269EB6822F41F3222F4407274
:1027400042EA00221B0942EA43426261236843F0E5
:1027500080532360FEF73CFC064623689B0005D5AA
:1027600063696A69134363610020F8BDFEF730FCBA
:10277000801B0228F1D9DBE7001002402DE9F34766
:10278000066816F40066044624D0416EB1F5800F49
:102790002CD002D8C1B101261CE0B1F5000F0DD03C
:1027A000B1F5400FF7D1BC4A616ED2F8883023F4FE
:1027B00040030B43C2F8883000260BE0B64AD368CA
:1027C00043F48033D360EEE70430FFF7CBFE0646D8
:1027D0000028E8D02368D80406D5A16EB1F1807F27
:1027E00074D008D8A9B10126354621E00021203057
:1027F000FFF746FFEBE7B1F1007F04D0B1F1407F76
:10280000F1D1354609E0A44AD36843F48033D3605C
:10281000F7E7201DFFF7A6FE0546002D5CD19E4A76
:10282000A16ED2F8883023F040730B43C2F8883091
:102830002368990340F13B81974FBB6DDA0040F16B
:1028400057814FF00008DFF85492D9F8003043F474
:102850008073C9F80030FEF7BBFB8246D9F8003020
:10286000DB053BD5002D40D1D7F8903013F44073F1
:1028700015D0D4F88020934211D0D7F89030D7F8F3
:10288000902042F48032C7F89020D7F8902023F4AB
:10289000407322F48032C7F89020C7F89030D807F0
:1028A00009D5FEF795FB41F288390546D7F89030F7
:1028B000990740F1F580D7F89030D4F8802023F4C0
:1028C00040731343C7F8903035460EE0002104F101
:1028D0002000FFF7D5FE9FE72E46A9E7FEF778FB1D
:1028E000A0EB0A000228B9D90325B8F1000F03D0E4
:1028F000BB6D23F08053BB652368DA0708D56649B2
:10290000A06BD1F8882022F003020243C1F888208E
:102910009F0708D56049E06BD1F8882022F00C02AF
:102920000243C1F888205E0708D55B49206CD1F8C6
:10293000882022F030020243C1F88820180708D509
:102940005549606CD1F8882022F0C0020243C1F8DA
:102950008820D90608D55049A06CD1F8882022F4E7
:1029600040720243C1F888209A0608D54A49E06CB3
:10297000D1F8882022F440620243C1F888209F05E4
:1029800008D54549E06DD1F8882022F44022024361
:10299000C1F888205E0508D53F49206ED1F888200F
:1029A00022F440120243C1F88820580608D53A495B
:1029B000206DD1F8882022F440520243C1F88820CB
:1029C000190608D53449606DD1F8882022F44042B8
:1029D0000243C1F88820DA0508D52F49A06DD1F847
:1029E000882022F440320243C1F888201F030FD50B
:1029F000294AE16ED2F8883023F040630B43B1F1ED
:102A0000006FC2F8883054D1D36843F48013D36088
:102A100023685E030FD5204A216FD2F8883023F057
:102A200040630B43B1F1006FC2F888304CD1D368DA
:102A300043F48013D3602368580412D51649626F9B
:102A4000D1F8883023F040531343B2F1805FC1F8CE
:102A5000883044D10221201DFFF784FD002818BFD3
:102A600005462268110408D50B49A06FD1F88830BB
:102A700023F080430343C1F88830D30308D5064AC6
:102A8000E16FD2F8883023F000430B43C2F888305E
:102A9000284602B0BDE8F0870010024000700040F8
:102AA000FEF796FA401B48457FF600AF1CE7354617
:102AB00022E7B1F1806FABD10121201DFFF752FD5C
:102AC000002818BF0546A3E7B1F1806FB3D10121FB
:102AD000201DFFF747FD002818BF0546ABE7B2F100
:102AE000005FBED1022104F12000FFF7C9FDB5E768
:102AF000BB6D43F08053BB65BB6D03F08053019306
:102B0000019B4FF001089EE603685A6822F0E0023C
:102B10005A604268B2F5827F0AD18268B2F5004FEE
:102B200002D0B2F5806F03D11A6822F040021A6019
:102B3000826AB2F5005F07D11A6822F400521A6067
:102B40001A6842F400521A60012380F85D300023B5
:102B500080F85C300320704770B504460D46164679
:102B60002368986810F0800000D170BD6A1CF8D00E
:102B7000FEF72EFA801B8542F2D82046BDE8704051
:102B8000FFF7C2BFF8B505460C4616461F46296832
:102B90008868204000D1F8BDB4F5C06F08BF0B7B3A
:102BA000731CF5D0FEF714FAC01B8642EFD82846F6
:102BB000BDE8F840FFF7A8BF70B513460D461646AE
:102BC0000A464FF4C0510446FFF7DCFF28B1236EDC
:102BD00043F02003236603200FE0324629462046B7
:102BE000FFF7BAFF0028F2D133462A464FF4C061FE
:102BF0002046FFF7C7FF0028E9D170BDF8B543684C
:102C0000B3F5827F04460E4617460BD18368B3F5B1
:102C1000004F02D0B3F5806F04D123681A6822F008
:102C200040021A603A4631462046FFF795FF0546B6
:102C300028B1236E43F020032366032513E0636865
:102C4000B3F5827F0FD1A368B3F5004F02D0B3F57F
:102C5000806F08D13B4632464FF4C0612046FFF7F3
:102C600091FF0028E5D12846F8BD70B5044600283C
:102C70004AD00023836290F85D3003F0FF021BB955
:102C800080F85C2004F08AFB0223216884F85D3020
:102C90000B68E26823F04003B2F5E06F0B604FF081
:102CA00000032ED91846B2F5706F18BFA362236BCC
:102CB0002BB9B2F5E06F8CBF022301232363A66812
:102CC0006368A56933432669334366693343E6691C
:102CD0003343266A3343A66A334305F4007633430D
:102CE0000B60636A1A43636B2D0C1A4305F00405ED
:102CF0002A430243012300204A60206684F85D30A5
:102D000070BD4FF48050D0E7012070BD2DE9F34134
:102D10001E4690F85C30012B04460D46904600F0AC
:102D2000B180012380F85C30FEF752F9074694F831
:102D30005D00C0B2012840F0A380002D5FD0B8F143
:102D4000000F5CD0032384F85D300020A368206668
:102D50002064A4F83E80A4F84400A4F8460020654E
:102D6000E0642068A563B3F5004F08BF0368A4F8CA
:102D70003C8004BF43F48043036003685B065EBF8E
:102D8000036843F040030360E368B3F5E06F6368F2
:102D90003ED913B1B8F1010F07D135F8023BC3603A
:102DA000A563E38F013B9BB2E387E38F9BB2A3B99B
:102DB0003A4631462046FFF7FFFE00285DD1A36862
:102DC00033B901932368DA6801929B680193019BF0
:102DD000206E003018BF012011E022689368980728
:102DE00005D5A36B33F8021BD160A363D9E7FEF7C7
:102DF000EFF8C01BB042D8D3711CD6D003200123FA
:102E000084F85D30002384F85C3002B0BDE8F081C6
:102E100013B1B8F1010F13D1E38F9BB2012B06D987
:102E200035F8023BC360A563E38F023B06E02B78D5
:102E30000373A36B0133A363E38F013B9BB2E3876F
:102E4000E38F9BB2002BB3D023689A6892070CD50E
:102E5000E28FA06B92B2012A04D930F8022BDA601B
:102E6000A063E1E702781A73E3E7FEF7B1F8C01B4D
:102E70008642E5D8731CE3D0C0E7202323669EE793
:102E80000220BCE70220C0E72DE9F8431E4690F877
:102E90005C30089F012B04460D46914600F01581D9
:102EA000012380F85C30FEF793F894F85D30616898
:102EB000DBB2012B80460AD0B1F5827F40F003815E
:102EC000A068002840F0FF80042B40F0FC80002D1B
:102ED00049D0B9F1000F46D0002E44D094F85D30AF
:102EE000E2682068C4F84090042B1CBF052384F8D6
:102EF0005D3000232366B2F5E06FA4F84660E687F4
:102F0000E3642365A4F84460A563A687436801D8F9
:102F1000012E2AD923F48053436003685B065EBF09
:102F2000036843F040030360B2F5E06F56D909B17E
:102F3000012E07D135F8023BC360E38FA563013B47
:102F40009BB2E3870125E38F9BB28BB9B4F846307F
:102F50009BB26BB9424639462046FFF72DFE00284A
:102F600034D020232366012030E043F48053D3E79C
:102F70002268936899070DD5E38F9BB253B14DB189
:102F8000A36B33F8021BD160A363E38F013B9BB2B9
:102F9000E38700259368DB070FD5B4F846309BB272
:102FA0005BB1236CD26823F8022B2364B4F846305B
:102FB000013B9BB2A4F846300125FEF709F8A0EBCF
:102FC00008008742BFD87E1CBDD00320012384F8AF
:102FD0005D30002384F85C30BDE8F88309B1012E30
:102FE0000BD1E38F9BB2012B51D935F8023BC36063
:102FF000E38FA563023B9BB2E3870125E38F9BB27E
:1030000023B9B4F846309BB2002BA3D02268936852
:10301000980711D5E38F9BB273B16DB1E38F9BB26B
:10302000012BA36B3BD933F8021BD160A363E38F61
:10303000023B9BB2E387002522689368D9071DD520
:10304000B4F846309BB2CBB1B4F846309BB2012BFA
:10305000236C2CD9D16823F8021B2364B4F84630C2
:10306000023B9BB2A4F84630B4F846309BB2012B29
:1030700003D8536843F4805353600125FDF7A8FF3C
:10308000A0EB08008742B9D87B1CB7D09DE72B780E
:103090000373A36B0133A363E38F013BABE71B789F
:1030A0001373A36B0133A363E38F013BC1E7127B6F
:1030B0001A70236C01332364B4F84630013B9BB291
:1030C000A4F84630D9E7022080E70220BDE8F88363
:1030D0002DE9F3411D464368B3F5827F04468846D7
:1030E00017460CD1836853B9042380F85D3013462A
:1030F00000950A46FFF7C8FE02B0BDE8F08194F8DB
:103100005C30012B00F08D80012384F85C30FDF7EA
:103110005FFF064694F85D00C0B201287FD1B8F188
:10312000000F6AD0002F68D0042384F85D30216836
:10313000E268A4F8447000232366A4F84670E3878D
:10314000A363A387E36423654B68C4F84080B2F5AA
:10315000E06F8CBF23F4805343F480534B60A3682B
:10316000B3F5004F02BF0B6823F480430B600B687C
:103170005F065EBF0B6843F040030B60B2F5E06F83
:1031800023D9B4F846309BB223B323689A68D20798
:103190003AD5DA68236C23F8022B2364B4F846305E
:1031A000013B9BB2A4F84630EBE723689A68D0074E
:1031B0001BD5226C1B7B1370236C01332364B4F882
:1031C0004630013B9BB2A4F84630B4F846309BB27F
:1031D000002BEAD1324629462046FFF70FFDD8B929
:1031E000206E003018BF012007E0FDF7F1FE801BC4
:1031F0008542EAD8691CE8D00320012384F85D30B9
:10320000002384F85C3077E7FDF7E2FE801B8542FF
:10321000B7D86B1CB5D0EFE720232366E0E7022088
:10322000EBE7022068E790F85D007047036A23F03F
:1032300001030362036A70B5446882690D6822F471
:10324000803222F073022A438D6823F002032B435D
:103250001B4DA8420FD005F50065A8420BD005F51F
:103260004065A84207D005F58065A84203D005F562
:103270008065A8421ED1CD6823F008032B43104D72
:10328000A84223F004030FD005F50065A8420BD037
:1032900005F54065A84207D005F58065A84203D032
:1032A00005F58065A84205D124F440758E694C6906
:1032B00034432C43446082614A684263036270BDB8
:1032C000002C0140036A23F480730362036A70B523
:1032D0004468C2690D6822F4803222F073022A43E6
:1032E0008D6823F4007343EA0523164DA84203D0EA
:1032F00005F50065A8420DD1CD6823F4006343EACB
:103300000523104DA84223F480630ED005F5006517
:10331000A8420AD00C4DA84207D005F58065A84206
:1033200003D005F58065A84206D124F440558E6986
:103330004C69344345EA04144460C2614A68C2637C
:10334000036270BD002C014000400140036A23F479
:1033500080530362036A30B54468C2690D6822F085
:10336000807222F4E64242EA05228D6823F400537B
:1033700043EA05330E4DA8420FD005F50065A8427B
:103380000BD005F54065A84207D005F58065A84239
:1033900003D005F58065A84204D14D6924F480442A
:1033A00044EA85144460C2614A680264036230BD25
:1033B000002C0140036A23F480330362036A30B5B2
:1033C0004468426D0D6822F4803222F070022A4374
:1033D0008D6823F4003343EA05430F4DA8420FD014
:1033E00005F50065A8420BD005F54065A84207D059
:1033F00005F58065A84203D005F58065A84204D193
:103400004D6924F4803444EA0524446042654A68E6
:103410008265036230BD00BF002C0140036A23F4C3
:1034200080130362036A30B54468426D0D6822F070
:10343000807222F4E04242EA05228D6823F40013F0
:1034400043EA05530E4DA8420FD005F50065A8428A
:103450000BD005F54065A84207D005F58065A84268
:1034600003D005F58065A84204D14D6924F4802479
:1034700044EA8524446042654A68C265036230BDFF
:10348000002C014070470000304A0368904212D07F
:10349000B0F1804F0FD0A2F5943290420BD002F5DC
:1034A0008062904207D002F58062904203D002F51C
:1034B0009432904219D14A6823F070031343234A8F
:1034C00090421DD0B0F1804F1AD0A2F594329042B4
:1034D00016D002F58062904212D002F580629042CE
:1034E0000ED002F5943290420AD0194A904207D089
:1034F00002F58062904203D002F58062904203D1CF
:10350000CA6823F4407313434A6923F080031343CA
:1035100003608B68C3620B6883620C4B98420FD0C8
:1035200003F5006398420BD003F54063984207D03F
:1035300003F58063984203D003F58063984201D17C
:103540000B69036301234361704700BF002C0140F6
:103550000040014010B50446A0B190F83D3003F0A2
:10356000FF021BB980F83C20FFF78CFF022384F890
:103570003D302068211DFFF787FF012384F83D308F
:10358000002010BD012010BD036A23F01003036268
:10359000036A70B5446882690D6822F0807222F473
:1035A000E64242EA05228D6823F0200343EA051330
:1035B000164DA84203D005F50065A8420DD1CD688F
:1035C00023F0800343EA0513104DA84223F0400383
:1035D0000ED005F50065A8420AD00D4DA84207D0CF
:1035E00005F58065A84203D005F58065A84206D19F
:1035F00024F440658E694C69344345EA8404446090
:1036000082614A688263036270BD00BF002C014082
:103610000040014038B590F83C30012B04464FF093
:10362000020010D00123082A84F83C3084F83D00C1
:1036300043D009D8FAB1042A2ED00123002084F8FF
:103640003D3084F83C0038BD102A47D0142A56D0AB
:103650000C2AF2D12068FFF779FE23680969DA693C
:1036600042F40062DA61DA6922F48062DA61DA69CE
:1036700042EA012230E02068FFF7D8FD236809699B
:103680009A6942F008029A619A6922F004029A61EA
:103690009A690A439A61D0E72068FFF775FF2368AB
:1036A00009699A6942F400629A619A6922F4806217
:1036B0009A619A6942EA0122ECE72068FFF702FE6C
:1036C00023680969DA6942F00802DA61DA6922F0EE
:1036D0000402DA61DA690A43DA61AEE72068FFF7CB
:1036E00069FE236809695A6D42F008025A655A6DED
:1036F00022F004025A655A6D0A435A659DE7206814
:10370000FFF78CFE236809695A6D42F400625A651E
:103710005A6D22F480625A655A6D42EA0122ECE742
:10372000036A01F01F0110B501248C4023EA040351
:103730000362036A8A401A43026210BD10B5044650
:1037400001220068FFF7ECFF2368144A93421FD060
:1037500002F5006293421BD002F54062934217D0FB
:1037600002F58062934213D002F5806293420FD03B
:1037700099680B480140062908D09A680240B2F5C2
:10378000803F03D01A6842F001021A60002010BD89
:103790005A6C42F400425A64EAE700BF002C014030
:1037A0000700010090F83C30012B30B54FF00203C8
:1037B0001FD00268104D80F83D30AA4253689468CB
:1037C00003D005F50065AA4203D14D6823F47003C8
:1037D0002B430D68896823F070032B4324F0800489
:1037E000536021430123916080F83D30002380F82D
:1037F0003C30184630BD00BF002C01400268C16952
:10380000F8B504468368006915680343606903439B
:10381000BA480B432840034313605368E06823F41D
:10382000405303435360B64BA0699A421CBF236ABE
:103830001843936823F4306303439360B14B9A4277
:1038400019D103F55843B04AD3F8883003F0030385
:10385000B1F5004FD35C40F03881082B00F28F8027
:10386000DFE813F01A01CA00F9008D0014018D0081
:103870008D008D003600A54B9A4207D103F5E63343
:10388000A34AD3F8883003F00C03E1E7A14B9A4236
:1038900023D103F5E433D3F8883003F03003102B41
:1038A00000F0F1800BD8002B00F0F380B1F5004F51
:1038B0004FF001024FF0000300F0F880A8E0202B49
:1038C00000F0C680302BF1D1B1F5004F40F0B88048
:1038D0006068430803F58033C3E08F4B9A421ED1E2
:1038E00003F5E233D3F8883003F0C003402B00F037
:1038F000BB800AD87BB9824B9A4240F0CA80FEF75F
:103900000DFE0023B0BB02463AE0802B00F09D8004
:10391000C02B00F0B0807A4B9A42C7D12FE07F4B8A
:103920009A4211D103F5E033D3F8883003F44073A1
:10393000B3F5807F00F09880DCD9B3F5007F00F00C
:103940008480B3F5407FE4E76D4B9A42AED103F536
:10395000C833D3F8883003F44063B3F5806F00F0C8
:103960008380C7D9B3F5006F6FD0B3F5406FD0E750
:103970006B480223626802EB4201814205D90122B1
:103980000023236663661046F8BDB0EB023FF6D80D
:10399000082B2ED8DFE803F0052D1C2D242D2D2D0E
:1039A0002700FEF7BBFD62684FF4807156080027C0
:1039B000E1FB0067002330463946FDF751F900224C
:1039C000584BA0F540719942D9D82368D860D7E701
:1039D0005548550800230021401941F10001ECE74A
:1039E000FEF790FADFE750080021002310F50000F1
:1039F000F3E701220020E3E7FEF7A2FD4EE0FEF729
:103A00008DFD626800EB5203B3FBF2F39BB2002220
:103A1000A3F110004FF6EF718842B0D82168CB6057
:103A2000AEE7FEF78DFDECE76068430803F574032D
:103A300003F51053B3FBF0F3E8E7FEF763FAE0E7B2
:103A40006068430803F50043F4E72D4B9A428FD09A
:103A5000B1F5004FE8D16068430803F1F47303F552
:103A60009043B3FBF0F31FE0254B9A420BD1FEF7D6
:103A700049FA042346E7224B9A427FF425AF4FF4DC
:103A80000040082376E7B1F5004FD6D1FEF73AFAA9
:103A900004E0B1F5004FB2D1FEF740FD61684A087D
:103AA00002EB4003B3FBF1F39BB20022A3F1100041
:103AB0004FF6EF7188423FF662AF23F00F012068A6
:103AC000C3F342030B43C3605AE7082B3FF657AFDB
:103AD00001A252F823F000BFFF390008233A000882
:103AE000293A00087F3900083B3A00087F3900086E
:103AF0007F3900087F390008413A0008F369FFEF79
:103B0000008000400038014030C5000800440040FB
:103B100034C5000800480040004C00400050004000
:103B20000024F400FFFC0F00000024F4436ADA07CD
:103B300010B506D50168846A4A6822F4003222432F
:103B40004A609C0706D50168C46A4A6822F480323C
:103B500022434A60590706D50168046B4A6822F47B
:103B6000802222434A601A0706D50168446B4A68DE
:103B700022F4004222434A60DC0606D50168846BC9
:103B80008A6822F4805222438A60990606D5016829
:103B9000C46B8A6822F4005222438A605A060FD509
:103BA0000168046C4A6822F480122243B4F5801F35
:103BB0004A6005D14A68446C22F4C00222434A603C
:103BC0001B0606D50268816C536823F400230B435F
:103BD000536010BD2DE9F041069D04460F46164680
:103BE00098462168CA6937EA02030CBF0122002205
:103BF000B24202D00020BDE8F0816B1CF2D09DB92A
:103C000023681A6822F4D0721A609A6822F00102BE
:103C10009A60202384F8713084F87230002384F88D
:103C200070300320BDE8F081FDF7D2F9A0EB080069
:103C30008542D6D2E4E72DE9F3411F4690F8713072
:103C4000202B04460D4690464AD1002946D0002A32
:103C500044D090F87030012B42D0012380F87030AE
:103C600000234367212380F87130FDF7B1F9A4F8F0
:103C700050800646A4F85280B4F85220009792B2C1
:103C8000334652B940212046FFF7A4FF58B92023FC
:103C900084F8713084F8700006E00022802120460C
:103CA000FFF798FF18B1032002B0BDE8F081A368C8
:103CB0002268B3F5805F0DD123695BB935F8023B0B
:103CC000C3F308031385B4F85230013B9BB2A4F848
:103CD0005230D1E72B7813850135F4E70120E3E773
:103CE0000220E1E72DE9F341984690F87230202B4D
:103CF00004460D46164660D100295CD0002A5AD0F1
:103D000090F87030012B58D0012380F870300023D8
:103D10004367222380F87230FDF75AF9A368A4F8AC
:103D20005860B3F5805F0746A4F85A6015D123693F
:103D30008BB940F2FF13A4F85C30B4F85C60B4F8BF
:103D40005A0080B2B8B9202384F8723084F8700029
:103D500002B0BDE8F081FF23EDE723B92369002B12
:103D6000F9D07F23E7E7B3F1805FE6D12369002B29
:103D7000F7D03F23DFE7CDF800803B46002220212B
:103D80002046FFF727FFD0B9A368B3F5805F23680B
:103D90000CD1226952B99B8C334025F8023BB4F810
:103DA0005A30013B9BB2A4F85A30C8E79B8C334091
:103DB0002B700135F3E70120CAE70220C8E7032092
:103DC000C6E773B5044600264667FDF701F9236888
:103DD0001B681A07054617D423681B685B070AD5BA
:103DE0006FF07E43009300222B464FF48001204663
:103DF000FFF7F0FEA0B92023002084F8713084F88A
:103E0000700084F872300CE06FF07E43009332460D
:103E100003464FF400112046FFF7DCFE0028DBD0FC
:103E2000032002B070BD10B5044660B390F8713045
:103E300003F0FF021BB980F8702003F009FB226831
:103E4000242384F87130136823F0010313602046A3
:103E5000FFF7D4FC012816D0636A13B12046FFF7A0
:103E600065FE23685A6822F490425A609A6822F0EC
:103E70002A029A601A6842F0010220461A60BDE8E0
:103E80001040FFF79EBF012010BD08B500F09EFC5A
:103E9000002008BD30B5B0F90840028A0B4690E812
:103EA000220085B0842C14BF0334002403A80190A1
:103EB0000094284600F078FB01280CBF03980020EE
:103EC00005B030BD08B5002808BF012000F0CCFDCA
:103ED000002008BD08B500F091FE012803D0BDE820
:103EE000084000F017B908BD00F1080343604FF027
:103EF000FF32C360036100238260036070470023C8
:103F00000361704743684B609A688A609A685160A1
:103F10009960036808610133036070470A68531CA5
:103F200030B50AD103695A684A6091608B60596064
:103F3000036808610133036030BD00F108035C6869
:103F40002568AA42EFD32346F9E7416882680369EE
:103F50008A60826851605968884208BF5A600022AE
:103F600002611A68013A1A601868704782B000232B
:103F700001930D4B1B68013308D04FF0500383F3BE
:103F80001188BFF36F8FBFF34F8FFEE74FF05003E1
:103F900083F31188BFF36F8FBFF34F8F019B002B0B
:103FA000FCD002B0704700BF000000200848006845
:103FB000006880F308884FF0000080F3148862B630
:103FC00061B6BFF34F8FBFF36F8F00DF00BF0000FC
:103FD00008ED00E0DFF80C00016841F470010160B9
:103FE0007047000088ED00E04FF0807340F8043C1B
:103FF000074B40F80C3C21F001016FF0020340F840
:10400000081C40F8202C40F8243C4438704700BF7E
:104010006D3F0008000000000000000000000000EC
:10402000074B19680868B0E8F04F80F30988BFF3C0
:104030006F8F4FF0000080F311887047AFF300805E
:10404000087F00204FF0500383F31188BFF36F8F78
:10405000BFF34F8F0A4A13680133012B13600DD150
:10406000084B1B6813F0FF0F08D04FF0500383F389
:104070001188BFF36F8FBFF34F8FFEE7704700BF0C
:104080000000002004ED00E0084A136843B94FF037
:10409000500383F31188BFF36F8FBFF34F8FFEE799
:1040A000013B13600BB983F31188704700000020B7
:1040B000EFF30980BFF36F8F154B1A681EF0100FD6
:1040C00008BF20ED108A20E9F04F10602DE90900AB
:1040D0004FF0500080F31188BFF34F8FBFF36F8F05
:1040E00000F0E6FC4FF0000080F3118809BC19686D
:1040F0000868B0E8F04F1EF0100F08BFB0EC108A4F
:1041000080F30988BFF36F8F704700BFAFF3008063
:10411000087F002008B54FF0500383F31188BFF3E8
:104120006F8FBFF34F8F00F095FB18B1034B4FF02B
:1041300080521A60002383F3118808BD04ED00E06B
:10414000084A0949002313600B60084B4FF47A7149
:104150001B68B3FBF1F30649013B0B6007231360B7
:10416000704700BF10E000E018E000E058000020B9
:1041700014E000E0394B3A4A13B51968914208D16E
:104180004FF0500383F31188BFF36F8FBFF34F8F4E
:10419000FEE71A68334B9A4208D14FF0500383F37D
:1041A0001188BFF36F8FBFF34F8FFEE72E4B1A7846
:1041B000D2B20192FF221A701B782C4ADBB28DF822
:1041C00003309DF8033003F050031370284B07228F
:1041D0001A6000219DF80300000602F1FF340DD49F
:1041E00001B11A601A68032A11D04FF0500383F30B
:1041F0001188BFF36F8FBFF34F8FFEE79DF8032049
:104200005200D2B28DF8032001212246E2E71202C9
:1042100002F4E0621A60019B134ADBB21370154B83
:104220001A6842F470021A601A6842F070421A600A
:10423000FFF786FF104B00241C60FFF7CBFE0F4AF0
:10424000136843F040431360FFF7B0FE00F030FC0A
:10425000FFF78CFE204602B010BD00BF00ED00E06D
:1042600071C20F4170C20F4100E400E0E806002077
:10427000EC06002020ED00E00000002034EF00E01C
:1042800010B50F4B1A68824218D35C68191988421E
:1042900001BF4168184609195960446801198A42EA
:1042A00007D1084909688A421FBF51681268091975
:1042B00041609842026018BF186010BD1346E1E7E4
:1042C000007F0020F00600202DE9F041044600F0B8
:1042D000B9FA3E493E4D0B680BBB3E4A56071FBF1D
:1042E000D01D20F0070002F5F0431B1A14BF024650
:1042F0004FF4F0431344083B23F00703364E0B60A2
:1043000000207060326058601860981A1360334B58
:1043100050601860324B18604FF000432B602F68DC
:10432000274216D1002C41D004F1080358071CBFC6
:1043300023F00703083363B1294A1668B342904655
:1043400007D8254A15686868834204D809688D42F1
:1043500007D100242AE02C68002CF7D02A462546F5
:10436000F1E7296814681160C21A102A0FD9E818F9
:10437000410708D04FF0500383F31188BFF36F8FCC
:10438000BFF34F8FFEE742606B60FFF779FF134981
:104390006B680868F61A1F4386424FF00003C8F89E
:1043A000006038BF0E6008346F602B6000F0E4FAE4
:1043B000630708D04FF0500383F31188BFF36F8F6A
:1043C000BFF34F8FFEE72046BDE8F081F0060020E6
:1043D000F47E0020F4060020007F0020FC7E0020F8
:1043E000F87E002010B5044670B3184A50F8043C1B
:1043F0001268134208D14FF0500383F31188BFF3C2
:104400006F8FBFF34F8FFEE750F8081C41B14FF09C
:10441000500383F31188BFF36F8FBFF34F8FFEE715
:1044200023EA020340F8043C00F00CFA084A54F86E
:10443000043C1168A4F108000B441360FFF720FF4F
:10444000BDE8104000F098BA10BD00BFF47E002017
:10445000F87E002040B94FF0500383F31188BFF37A
:104460006F8FBFF34F8FFEE74269064B9A4201D030
:1044700000207047806A044B9842F9D0B0FA80F06F
:104480004009704704800020EC7F0020064A136832
:104490001968064B19B94FF0FF321A60704712685D
:1044A000D268D2685268F8E70C7F0020E47F0020D1
:1044B000F8B51B4B1B4E1D680446306804300F4690
:1044C000FFF743FD334640B93168174EC96A326879
:1044D0000120884022EA00023260621C07D137B115
:1044E000196812480431BDE8F840FFF70BBD2C44B1
:1044F0001A68A542546007D90D4A10681968BDE8CA
:10450000F8400431FFF70ABD0A4A106819680431FF
:10451000FFF704FD084B1A68944238BF1C60F8BDD1
:104520002C800020087F0020B47F00200480002021
:10453000107F00200C7F0020E47F002080B5DFF892
:104540006480144F144C154E236863B9144B1B68D8
:10455000012BF8D94FF08053C8F80030BFF34F8FCC
:10456000BFF36F8FEEE7FFF76DFDFB68DD68281D79
:10457000FFF7EBFC3368013B33602368013B2360AA
:10458000FFF782FD286BFFF72DFF2846FFF72AFF74
:10459000DAE700BF18800020A47F0020A07F002061
:1045A000147F002004ED00E02DE9F84F4FEA820A65
:1045B000804650460F4699460B9EFFF785FE0546FE
:1045C000002800F096805420FFF77EFE0446002865
:1045D00000F08C80AAF1040A056355447B1E25F087
:1045E000070A00F134020F37597802F8011B13F85B
:1045F000011F09B1BB42F7D10A9D062D28BF062530
:104600004FF0000B271DE5626564384684F843B01F
:10461000C4F848B0FFF773FCC5F1070504F11800B2
:10462000FFF76DFCC4F84CB02461A561646284F8A6
:1046300050B04A4641465046FFF7D6FC206006B1CE
:104640003460FFF7FFFC324B324E1A68DFF8F0801F
:1046500001321A603568002D4ED134601B68012B81
:104660001DD108EB05001435FFF73EFC8C2DF8D169
:10467000DFF8D090284D4846FFF736FC2846FFF774
:1046800033FC2648FFF730FC2548FFF72DFC254872
:10469000FFF72AFC244BC3F80090244B1D60244AEA
:1046A00024491368086801331360E26A012505FA9A
:1046B00002F3034314200B6000FB02803946FFF72E
:1046C00021FCFFF7E1FC1C4B1B6863B13368DA6A1D
:1046D000E36A9A4207D2194B4FF080521A60BFF337
:1046E0004F8FBFF36F8F2846BDE8F88F2846FFF73E
:1046F00079FE4FF0FF35F6E70F4B1B68002BCED14C
:104700003368DA6AE36A9A4298BF3460C7E700BF49
:10471000A07F0020087F0020CC7F0020EC7F0020BD
:1047200018800020048000200C7F0020107F0020D3
:10473000B07F0020B47F00200080002004ED00E066
:10474000147F0020B87F002070B5044640B94FF0B8
:10475000500383F31188BFF36F8FBFF34F8FFEE7D2
:10476000164D2B68984228D0FFF76CFC2046FFF7C7
:1047700071FEF0B1261D3046FFF7E7FB1049E26AF3
:1047800008680123934003430B600E4B142000FB89
:1047900002303146FFF7B6FB2B68E26ADB6A9A42C9
:1047A00007D3094B4FF080521A60BFF34F8FBFF30E
:1047B0006F8FBDE87040FFF767BC70BD087F0020B9
:1047C000B47F0020147F002004ED00E013B5174BE8
:1047D0000193002400942346802215491548FFF7D1
:1047E000E3FE012814D14FF0500383F31188BFF387
:1047F0006F8FBFF34F8F104B4FF0FF321A600F4B8C
:1048000018600F4B1C6002B0BDE81040FFF7B2BC4F
:10481000013008D14FF0500383F31188BFF36F8F3D
:10482000BFF34F8FFEE702B010BD00BFE07F002056
:1048300041C500083D450008E47F002000800020BD
:104840002C800020024A136801331360704700BFB8
:10485000AC7F00202DE9F84F3C4B1B68002B53D157
:104860003B4B1C6801341C60BCB93A4B1A68126897
:1048700042B14FF0500383F31188BFF36F8FBFF342
:104880004F8FFEE7344A1968106818601160334A88
:10489000136801331360FFF7F9FD314D314F2B6879
:1048A0009C424FF0000B3ED3DFF8A880DFF8C490A5
:1048B000D8F80020126872BB4FF0FF322A6032E055
:1048C00006F1040A5046FFF740FBB16A19B106F140
:1048D0001800FFF73AFBF06AD9F80030012202FA1B
:1048E00000F11943204BC9F800104FF0140E514647
:1048F0000EFB0030FFF706FB3868F16AC26A91428E
:1049000028BF4FF0010BD3E7184A13680133136037
:104910004FF0000B11E0D8F80020D268D66871681B
:104920008C42CDD229603A680F4BD16A14224A4397
:104930009A58022A28BF4FF0010B0D4A1268002A2C
:1049400018BF4FF0010B5846BDE8F88FAC7F002030
:104950002C8000200C7F0020107F0020E87F0020AA
:10496000E47F0020087F0020147F0020A87F002023
:1049700030800020B47F00202DE9F843314C2368BB
:1049800043B94FF0500383F31188BFF36F8FBFF328
:104990004F8FFEE7FFF756FB2368013B2360246837
:1049A0002CB10024FFF770FB2046BDE8F883264BAE
:1049B0001B68002BF5D0DFF8A890244FDFF8A48007
:1049C000D9F80030E3B90CB1FFF760FD204D2C6839
:1049D00044B1204E0127FFF73DFF00B13760013C95
:1049E000F9D12C601B4B1B68002BDAD01A4B4FF00F
:1049F00080521A60BFF34F8FBFF36F8F0124D1E74E
:104A0000D9F80C30DC68261D04F11800FFF79DFA78
:104A10003046FFF79AFAE26A3968012505FA02F38F
:104A200014200B4300FB028031463B60FFF76AFA1B
:104A30000A4BE26A1B68DB6A9A4224BF054B1D6081
:104A4000BEE700BFAC7F0020A07F0020B47F002025
:104A5000A87F00203080002004ED00E0087F0020C7
:104A6000EC7F0020147F002008B540B90E4B4FF0BA
:104A700080521A60BFF34F8FBFF36F8F08BD0B4B8F
:104A8000196841B14FF0500383F31188BFF36F8F62
:104A9000BFF34F8FFEE7FFF7D5FEFFF709FDFFF7E6
:104AA0006BFF0028E2D008BD04ED00E0AC7F0020E1
:104AB000174B1A68174B10B512B101221A6010BDBE
:104AC0001A60154B1B68B3FA83F3DBB2C3F11F0303
:104AD000142212495A4388188C5844B94FF0500395
:104AE00083F31188BFF36F8FBFF34F8FFEE74468E6
:104AF0000832646844600A44944204BF62684260B9
:104B0000142202FB03135B68DA68054BD6E700BF8B
:104B1000AC7F002030800020B47F0020147F002074
:104B2000087F002070B504462C4EFFF78BFA04B9BD
:104B30003468251D2846FFF708FA60B9E06A284B5B
:104B4000142141435B5833B9264901220B68824046
:104B500023EA02030B60A36A1BB104F11800FFF7FC
:104B6000F4F929462048214DFFF7CCF994F850304C
:104B7000012B04BF002384F85030FFF785FA2A6820
:104B80002AB1FFF75FFAFFF781FCFFF77DFA336880
:104B90009C4222D12B68A3B1154B1B6843B14FF047
:104BA000500383F31188BFF36F8FBFF34F8FFEE77E
:104BB000104B4FF080521A60BFF34F8FBFF36F8FCF
:104BC00070BD094A11680C4A1268914201D13360E4
:104BD00070BDBDE87040FFF76BBF70BD087F00205F
:104BE000147F0020B47F002004800020008000207B
:104BF000AC7F002004ED00E0A07F0020054B1B6887
:104C000033B1054B1B68002B0CBF022000207047FE
:104C10000120704700800020AC7F002038B5154C83
:104C2000154B23604FF48053A380144BA360144BA7
:104C3000E360144B2361144B6361144BA361144B69
:104C4000E361144B2362144B63622046134BA3624F
:104C500000F082F8124D204600F09CF808B10120C7
:104C600038BD284603F01AF84FF47A70FFF72AF996
:104C7000F1E700BF0085002000040048AD7B00087C
:104C8000DD0F0008DD4C0008E14C0008E54C000891
:104C9000E94C0008F94C0008054D0008194D0008C2
:104CA00046C5000813460A460146014800F0A4B86C
:104CB000008500202DE9F041074C174605460E46B9
:104CC0000146204600F013F93B463246294620466D
:104CD000BDE8F04100F0D2B80085002000F0D5BD5D
:104CE00000F0F5BD00F0F6BD0149024800F01EBE1F
:104CF000003800402C850020014800F041BE00BF74
:104D00002C8500200A464FF6FF730146014800F04B
:104D10006FBE00BF2C8500200A464FF6FF73014688
:104D2000014800F073BE00BF2C85002013B500239E
:104D30000446ADF80430818883690068984702A86A
:104D4000062300F8043D0121636A98476369A1883E
:104D50002068984702B010BD10B5044603698188E9
:104D600000689847E3699847236A984760B1A1882B
:104D7000A36920689847E368642098476369A1881D
:104D80002068BDE810401847E3684FF47A709847F0
:104D9000EAE7000037B5002504468369818801955C
:104DA0000068984702A89F2300F8053D0121636A27
:104DB0009847A36A032101A898476369A1882068DE
:104DC00098479DF80630A4689DF8052008490948D1
:104DD000A0479DF80530402B07D19DF80600A0F1B3
:104DE00017035842584103B030BD2846FBE700BFC7
:104DF00061C5000884C50008F7B50D4600210446CA
:104E00001F4600918DF8041083698188006816465A
:104E1000984703238DF800302B0C8DF801302B0AB6
:104E20008DF802308DF80350636A68460421984774
:104E300039463046A56AA8476369A1882068984723
:104E400003B0F0BD13B500230446ADF804308188EB
:104E500083690068984702A8052300F8053D0121F1
:104E6000636A9847A36A01A801219847206863698B
:104E7000A18898479DF8040002B010BDF0B591B02C
:104E800004460E4617460021402268461D4602F0A1
:104E900078FE2046FFF74AFFA369A188206898475B
:104EA00002238DF80030330C8DF80130330A8DF871
:104EB00002308DF803600022531CD2B2AA420FD3F5
:104EC000291D636A89B2684698476369A18820688A
:104ED00098472046FFF7B6FFC307FAD411B0F0BDDC
:104EE00010A91144BA5C01F83C2C1A46E4E737B526
:104EF000044600230D4600938DF80430FFF716FF9B
:104F0000A369A1882068984720238DF800302B0CD6
:104F10008DF801302B0A8DF802300421636A8DF878
:104F20000350684698476369A188206898472046DF
:104F3000FFF788FFC307FAD403B030BDFCF74EB8C3
:104F400000F07CBC00F0B3BC08B500F0C8FC08BDA4
:104F500000F0BDBC00F0BEBC0149024800F0E6BC58
:104F60000030014090850020014800F009BD00BFDD
:104F7000908500200A460146014800F009BD00BFA7
:104F80009085002002460021014800F017BD00BFB7
:104F90009085002038B5224C224AE2600223A360AB
:104FA000A3760923E376204BC4F824341F4BC4F8BE
:104FB0002C341F4BC4F830341E4BC4F838341E4B0D
:104FC000C4F83C341D4BC4F834341D4B6260C4F843
:104FD000403401221B4B1C4D2260C4F844344FF076
:104FE00090421A4B6261C4F84C341022184B28804E
:104FF0002261A0830022C4F848342046154B227653
:105000006276C4F8503400F08FF9298820464FF6B4
:10501000FF7200F0AEF91048BDE8384002F03EBE25
:10502000F4850020000400483D4F0008414F00086F
:10503000454F0008514F0008554F0008494F0008E0
:10504000594F0008694F000834800020854F000840
:10505000754F0008AD7B00089EC50008F8B50F4CE1
:105060000A464FF6FF7306460F460146204600F0FB
:1050700082FA0B4B054619884FF6FF72204600F066
:1050800078F9D4F850342DB13A463146054898475E
:105090002846F8BD04489847FAE700BFF485002089
:1050A00034800020B9C50008F2C5000807B502AA7F
:1050B0000023014622F8023D034800F071FABDF8D2
:1050C000060003B05DF804FBF4850020D0F8383406
:1050D000018A4069184710B50446FFF7F7FF218899
:1050E000D4F83C3460689847D4F824346420984756
:1050F000D4F83834606821889847D4F82434642080
:10510000BDE810401847000070B5074C0646D6F8B9
:1051100044349847054628B9D6F8283401209847E2
:10512000013CF4D1284670BDC0C62D00D0F83C34F7
:10513000018A40691847F8B504460E4615461F46D1
:10514000FFF7F4FFD4F848344FF6FF7146F08000C3
:1051500098472046FFF7D8FF013F6E1E3D44AE4200
:1051600004D12046BDE8F840FFF7B0BFD4F848347A
:1051700016F8010F4FF6FF7198472046FFF7C4FF5E
:10518000EDE770B504460E461546FFF7CFFFD4F89D
:1051900048344FF6FF7146F0800098472046FFF7ED
:1051A000B3FFD4F848344FF6FF712846984720469D
:1051B000FFF7AAFF2046BDE87040FFF787BF38B56C
:1051C00004460D46FFF7B2FF4FF6FF71D4F848349E
:1051D000284698472046FFF797FFD4F84C344FF6FF
:1051E000FF70984705462046FFF78EFF2046FFF7E1
:1051F0006DFF284638BD10B5092204460121FFF78E
:10520000C0FF0123A37710BD10B508220446012179
:10521000FFF7B7FF0023A37710BD88220121FFF716
:10522000B0BF000038B50446FFF7EEFFD4F82434D1
:10523000394D0F2098472046FFF7EFFF227E374970
:1052400002EB42020A44032306212046FFF773FFC4
:10525000637E334A0921D25C2046FFF792FF0B227E
:1052600011462046FFF78DFF23220C212046FFF731
:1052700088FFA37E2B4AEB5C062BE37ED25C4FEAD1
:1052800002123BD10332D2B21D212046FFF779FF33
:10529000A37EEA5C12010732D2B21E212046FFF73C
:1052A00070FF31212046FFF78AFF00F0F80242F03C
:1052B000050231212046FFF764FF0C2237212046EA
:1052C000FFF75FFF2046FF221F21FFF75AFF20460E
:1052D00000222021FFF755FF20460C222121FFF755
:1052E00050FF204601224121FFF74BFF0023A4F885
:1052F00020342046BDE83840FFF77DBF023202F07F
:10530000FE021D212046FFF73CFFA37EEA5C12014E
:105310000732D2B21E21D2E725C6000814C6000803
:1053200021C6000817C6000810B50446D0F82C3472
:10533000018840689847D4F82C34218A60699847DE
:10534000D4F830342189E06898472046FFF7BEFE44
:10535000D4F83834218860689847D4F840349847A6
:105360002046BDE81040FFF75DBFFF221221FFF786
:1053700008BF38B50446818315464D218422FFF7C6
:1053800000FFFF2224212046FFF7FBFE01224021DF
:105390002046FFF7F6FE3F2211212046FFF7F1FEDF
:1053A0002046FFF7E2FF222211462046FFF7E9FEE2
:1053B0000F212046FFF703FF0D2102462046FFF78D
:1053C000E0FE8D2201212046FFF7DBFE0023A4F83A
:1053D000203418212046FFF7F2FE430703D50323AC
:1053E000A377012038BD013D07D12046FFF773FEAA
:1053F0002046FFF717FF284638BDD4F82434012093
:105400009847E6E72DE9F041D0F8343401890446A5
:10541000C0689847B8B304F11F08B4F820240021ED
:10542000404602F0AEFB10212046FFF7C8FE0D21DA
:1054300002462046FFF7A5FEA37E43BB257F012D34
:105440001CD92046FFF772FED4F848344FF6FF719E
:10545000002098472046FFF757FE6F1E04F11E06F6
:1054600058FA87F7D4F84C344FF6FF70984706F88F
:10547000010FB742F6D12046FFF728FEA4F82054CA
:105480002046FFF772FFB4F82004BDE8F081132135
:105490002046FFF794FE0546D1E770B504460E4658
:1054A000A18315464D218722FFF76BFE00222421A0
:1054B0002046FFF766FE412240212046FFF761FEAD
:1054C0002046FFF752FFF72211212046FFF759FE31
:1054D000F2B222212046FFF754FE0E212046FFF7AC
:1054E0006EFE0D2102462046FFF74BFE222120468C
:1054F000FFF765FE80B2864203D10223A377012025
:1055000070BD013DF2D12046FFF7E5FD2046FFF7D3
:1055100089FE284670BD38B51D46D3B2012B04461E
:1055200003D90A460021FFF706FE8B2201212046FF
:10553000FFF727FED4F834342189E068984758B142
:1055400012212046FFF73BFE2046FFF70EFF2046C4
:10555000FFF751FE012038BD013D07D12046FFF77E
:10556000BAFD2046FFF75EFE284638BDD4F8243445
:1055700001209847DEE72DE9F04114460F461A4610
:10558000214606461D46FFF788FF38B12B462246C6
:1055900039463046BDE8F041FFF7BDBFBDE8F081B8
:1055A000F8B50027A0F82074144605460E46FFF70C
:1055B00029FF208050B1B5F82024228005F11F0179
:1055C000304602F0D3FA2388F7540120F8BD0221B7
:1055D0004FF0904000F081B94FF48071014800F025
:1055E00079B900BF000800484FF48061014800F01D
:1055F0006EB900BF000400481021014800F067B9EF
:10560000000400481021014800F064B9000400487B
:105610004FF40051014800F05AB900BF000800489B
:105620004FF40051014800F055B900BF0008004890
:105630004FF48041014800F04AB900BF000800481B
:105640004FF48041014800F045B900BF0008004810
:105650004021014800F03BB90004004840210148C6
:1056600000F038B9000400488021014800F02FB94B
:10567000000400488021014800F02CB900040048D3
:1056800038B502211D4D1E4C4FF0904000F0E9F856
:105690004FF480714FF0904000F009F928464FF424
:1056A000007100F004F9FFF797FF20464FF4806186
:1056B00000F0D7F8FFF798FF2046102100F0D1F84E
:1056C000FFF7A0FF28464FF4005100F0CAF8FFF79B
:1056D000A7FF28464FF4804100F0C3F8FFF7B0FF62
:1056E0002046402100F0BDF8FFF7B8FF204680219A
:1056F00000F0B7F8BDE83840FFF7BCBF000800482D
:1057000000040048042210B5144B426101220360DA
:10571000C26100234FF4805243608360C360036121
:105720000376437680F820308362C36280F830309D
:10573000426380F838300446FBF78AFC10B1084811
:1057400002F0ACFA7F212046FCF724F920B105488D
:10575000BDE8104002F0A2BA10BD00BF0000045026
:105760002CC6000840C6000830B587B004460D4678
:1057700018220021684602F004FA062301937F23D1
:10578000039369460423204600950493FBF7BCFD70
:1057900010B1024802F082FA07B030BDAAC6000874
:1057A00038B504460D46FCF731F810B10C4802F04C
:1057B00075FA64212046FBF72BFD10B1094802F071
:1057C0006DFA2046FBF782FF830503D52046FBF7E1
:1057D00097FD28602046BDE83840FCF7BCB800BF04
:1057E00062C6000880C60008134BDA6C42F0010262
:1057F000DA64DA6C84B002F001020092009ADA6C8A
:1058000042F00202DA64DA6C02F002020192019ABA
:10581000DA6C42F00402DA64DA6C02F004020292FA
:10582000029ADA6C42F00802DA64DB6C03F00803D7
:105830000393039B04B070470010024030B587B05B
:1058400004460D461422002101A802F09AF9012312
:1058500001A92046019502930393FCF74BF907B089
:1058600030BD30B587B004460D461422002101A892
:1058700002F087F90123029301A902232046019532
:105880000393FCF737F907B030BD30B587B0044655
:105890000D461422002101A802F073F9012301A989
:1058A000204601950293FCF725F907B030BD30B5CD
:1058B00087B004460D461422002101A802F061F9C8
:1058C00001A920460195FCF715F907B030BD01226A
:1058D000FCF7F2B90022FCF7EFB9FCF7F2B908B512
:1058E000FCF7E4F9003018BF012008BD38B50D48B9
:1058F0000D4C002540F6146384E82900012320465E
:10590000E36025616561A561E5612562FCF7DDF96C
:1059100029462046FCF72AFA29462046BDE83840A9
:10592000FCF74ABA00540040488A002038B54FF4CA
:10593000827343604FF4E063C3604FF4007383618C
:1059400008230025C3610A23016085600561456164
:10595000056245628562C3620446FDF786F928B197
:105960002C21064802F022F9284638BD2268136827
:1059700043F040031360012038BD00BFC8C60008D3
:1059800008B5FDF750FC431E5842584108BD0000C1
:1059900013B502AC134604F8011D01222146FDF7A0
:1059A000B5F930B15221044802F000F9002002B0EC
:1059B00010BD0120FBE700BF0CC700081FB58DF824
:1059C0000E1004A9002301F8013D009201230A46AC
:1059D0000DF10E01FDF758FA18B16521034802F0E8
:1059E000E5F89DF80F0005B05DF804FBEEC6000871
:1059F00008B5FDF78BF928B17721034802F0D6F8F6
:105A0000002008BD012008BD0CC7000808B5FDF73F
:105A10005FFB28B187210348BDE8084002F0C6B803
:105A200008BD00BFEEC600082DE9F34180460E46D2
:105A30008F180C46A51BBC42ADB203D1284602B05C
:105A4000BDE8F081FF2301220DF107014046FEF77A
:105A500049F90028F2D19DF8073004F8013BE9E745
:105A600008B54FF6FF73FEF7E6F8B0FA80F040098C
:105A700008BD000038B500250C2380E806008560CD
:105A8000C560056143618561C56105620446FEF735
:105A9000CAF938B9044BC4F88030044BC4F88430D8
:105AA000012038BD284638BD615A0008295A00082F
:105AB00000B5E5B000230DF10602014602A8ADF8DD
:105AC000063000F0F3FA044BBDF806101B6802A87C
:105AD000984765B05DF804FBAC8A002070B5C8B08B
